:0400000054EF00F0C9
:100008002382FACF03F0FBCF04F0E9CF05F0EACF63
:1000180006F0E1CF07F0E2CF08F0D9CF09F0DACF48
:100028000AF0F3CF0BF0F4CF0CF0F6CF0DF0F7CFCA
:100038000EF0F8CF0FF0F5CF10F023C011F024C068
:1000480012F025C013F026C014F0BAA003D0BA905D
:1000580056EC00F014C026F013C025F012C024F0AE
:1000680011C023F010C0F5FF0FC0F8FF0EC0F7FF56
:100078000DC0F6FF0CC0F4FF0BC0F3FF0AC0DAFF97
:1000880009C0D9FF08C0E2FF07C0E1FF06C0EAFFC8
:1000980005C0E9FF04C0FBFF03C0FAFF239211006B
:1000A800A4EF01F02250080DF3CF1BF0F4CF1CF0A1
:1000B80022C001F0D8900132D8900132D890013294
:1000C800010E026E012A02D0D8900236012EFCD70A
:1000D8000250FF0A876E22C001F0070E0116010EBA
:1000E800026E012A02D0D8900236012EFCD70250A7
:1000F800846EFE0E886EF40E1B24D96E0C0E1C2026
:10010800DA6EDF50806E2A0EE82EFED700D0000E81
:10011800806EFD0E886E010E1B24016E000E1C20E1
:10012800026EF40E0124D96E0C0E0220DA6EDF5036
:10013800806E2A0EE82EFED700D0000E806EFB0ED1
:10014800886E020E1B24016E000E1C20026EF40E37
:100158000124D96E0C0E0220DA6EDF50806E2A0E52
:10016800E82EFED700D0000E806EF70E886E030EC4
:100178001B24016E000E1C20026EF40E0124D96EA1
:100188000C0E0220DA6EDF50806E2A0EE82EFED7A3
:1001980000D0000E806EEF0E886E040E1B24016ED8
:1001A800000E1C20026EF40E0124D96E0C0E0220E3
:1001B800DA6EDF50806E2A0EE82EFED700D0000ED1
:1001C800806EDF0E886E050E1B24016E000E1C204B
:1001D800026EF40E0124D96E0C0E0220DA6EDF5086
:1001E800806E2A0EE82EFED700D0000E806EBF0E5D
:1001F800886E060E1B24016E000E1C20026EF40E83
:100208000124D96E0C0E0220DA6EDF50806E2A0EA1
:10021800E82EFED700D0000E806E7F0E886E070E87
:100228001B24016E000E1C20026EF40E0124D96EF0
:100238000C0E0220DA6EDF50806E2A0EE82EFED7F2
:1002480000D0000E806E8868222A3F0E22641200B9
:10025800000E226E1200D388D38AD38C9B8CD19047
:10026800000E0F01256F000E246F000E236F979E5E
:10027800000E926E000E966E000E996E000E9A6E2B
:100288002395239798849892228F22892185208705
:100298008A0E1E6F000E1F6FA49A030E03139C0E86
:1002A800046F0385BA90B980F28CF28E000E166E38
:1002B800000E156E16BE04D0020E165CD8B01200E1
:1002C800F40E1524D96E0C0E1620DA6EFF0EDF6EB2
:1002D800154A162AEFD72FEC01F0858E520E186EAC
:1002E8002B0E176E000EE82EFED7172EFCD7182EF1
:1002F800FAD700D0859EA4AAFED71DCF21F0A49AD4
:10030800F40E1924D96E0C0E1A20DA6E21C0DFFF04
:10031800194A1A2A020E1A5CD8A004D0000E1A6EC6
:10032800000E196E85BE03D0176A172A01D0176A06
:1003380017321732855017187F0B1718856EDBD7C1
:100348000AEEF4F014EE00F0EE6AE550E150FCE13C
:10035800E250FAE100EE19F00A0EEE6AE806FDE155
:0A0368002390239200016FEF01F0D3
:020000040020DA
:08000000FFFFFFFFFFFFFFFF00
:020000040030CA
:0E0000001D187F7C010B91FFFFC0FFE0FF4049
:00000001FF
