:0400000054EF00F0C9
:100008002C82FACF03F0FBCF04F0E9CF05F0EACF5A
:1000180006F0E1CF07F0E2CF08F0D9CF09F0DACF48
:100028000AF0F3CF0BF0F4CF0CF0F6CF0DF0F7CFCA
:100038000EF0F8CF0FF0F5CF10F02CC011F02DC056
:1000480012F02EC013F02FC014F0BAA003D0BA904B
:1000580056EC00F014C02FF013C02EF012C02DF093
:1000680011C02CF010C0F5FF0FC0F8FF0EC0F7FF4D
:100078000DC0F6FF0CC0F4FF0BC0F3FF0AC0DAFF97
:1000880009C0D9FF08C0E2FF07C0E1FF06C0EAFFC8
:1000980005C0E9FF04C0FBFF03C0FAFF2C92110062
:1000A80001EF02F02B50080DF3CF24F0F4CF25F028
:1000B80087682BC001F0070E0116010E026E012A97
:1000C80002D0D8900236012EFCD70250846E350E2D
:1000D800E82EFED700F02BC001F0D8900132D8905E
:1000E8000132D8900132010E026E012A02D0D89056
:1000F8000236012EFCD70250FF0A876EFE0E886E6C
:10010800F40E2424D96E0C0E2520DA6EDF50806E92
:100118002A0EE82EFED700D0000E806EFD0E886EE7
:10012800010E2424016E000E2520026EF40E012417
:10013800D96E0C0E0220DA6EDF50806E2A0EE82E81
:10014800FED700D0000E806EFB0E886E020E2424AF
:10015800016E000E2520026EF40E0124D96E0C0EDD
:100168000220DA6EDF50806E2A0EE82EFED700D00D
:10017800000E806EF70E886E030E2424016E000EAA
:100188002520026EF40E0124D96E0C0E0220DA6EC0
:10019800DF50806E2A0EE82EFED700D0000E806E4B
:1001A800EF0E886E040E2424016E000E2520026EC8
:1001B800F40E0124D96E0C0E0220DA6EDF50806E28
:1001C8002A0EE82EFED700D0000E806EDF0E886E55
:1001D800050E2424016E000E2520026EF40E012463
:1001E800D96E0C0E0220DA6EDF50806E2A0EE82ED1
:1001F800FED700D0000E806EBF0E886E060E242437
:10020800016E000E2520026EF40E0124D96E0C0E2C
:100218000220DA6EDF50806E350EE82EFED700F031
:10022800000E806E7F0E886E070E2424016E000E6D
:100238002520026EF40E0124D96E0C0E0220DA6E0F
:10024800DF50806E350EE82EFED700F0000E806E6F
:1002580088682B2A3F0E2B641200000E2B6E1200AA
:10026800D388D38AD38C9B8CD190000E0F01256F35
:10027800000E246F000E236F979E000E926E000EE4
:10028800966E000E996E000E9A6E239523979884A9
:100298009892228F2289218520878A0E1E6F000E50
:1002A8001F6FA49A030E0313FE0E046F0385BA9002
:1002B800B980F28CF28E000E1F6E000E1E6E1FBEED
:1002C80004D0020E1F5CD8B01200F40E1E24D96EA2
:1002D8000C0E1F20DA6E1EC015F01FC016F0000E9F
:1002E800186E080E176E8AEC01F0010E1526010E25
:1002F8001516550E1D6E152A02D0D8901D36152ECE
:10030800FCD71D50DF6E1E4A1F2AD9D7000E1A6E61
:1003180018AE06D0176C181ED8B0182A010E1A6E1F
:1003280016AE06D0156C161ED8B0162A010E1A1A6B
:10033800000E1C6E000E1B6E17501810D8B41CD07F
:10034800010E196E04D0D89017361836192A18AE2F
:10035800FAD7D8901B361C361750155C185016580B
:10036800D8A005D01750155E1850165A1B80D89083
:1003780018321732192EEDD71A50D8B404D01B6C86
:100388001C1ED8B01C2A1BC015F01CC016F0120089
:1003980034EC01F0858E520E216E2B0E206E000E6D
:1003A800E82EFED7202EFCD7212EFAD700D0859E26
:1003B800A4AAFED71DCF2AF0A49AF40E2224D96E3F
:1003C8000C0E2320DA6E2AC0DFFF224A232A020EEF
:1003D800235CD8A004D0000E236E000E226E85BECA
:1003E80003D0206A202A01D0206A2032203285508A
:1003F80020187F0B2018856EDBD70AEEF4F014EE78
:1004080000F0EE6AE550E150FCE1E250FAE100EE5E
:1004180022F00A0EEE6AE806FDE12C902C9200010B
:04042800CCEF01F024
:020000040020DA
:08000000FFFFFFFFFFFFFFFF00
:020000040030CA
:0E0000001D187F7C010B91FFFFC0FFE0FF4049
:00000001FF
